{
  "contractName": "CampaignFactory",
  "abi": [
    {
      "inputs": [
        {
          "internalType": "address",
          "name": "_token",
          "type": "address"
        }
      ],
      "stateMutability": "nonpayable",
      "type": "constructor"
    },
    {
      "anonymous": false,
      "inputs": [
        {
          "indexed": false,
          "internalType": "uint256",
          "name": "id",
          "type": "uint256"
        }
      ],
      "name": "Cancel",
      "type": "event"
    },
    {
      "anonymous": false,
      "inputs": [
        {
          "indexed": false,
          "internalType": "uint256",
          "name": "id",
          "type": "uint256"
        },
        {
          "indexed": true,
          "internalType": "address",
          "name": "creator",
          "type": "address"
        },
        {
          "indexed": false,
          "internalType": "uint256",
          "name": "_goal",
          "type": "uint256"
        },
        {
          "indexed": false,
          "internalType": "uint32",
          "name": "_startAt",
          "type": "uint32"
        },
        {
          "indexed": false,
          "internalType": "uint32",
          "name": "_endAt",
          "type": "uint32"
        }
      ],
      "name": "Launch",
      "type": "event"
    },
    {
      "anonymous": false,
      "inputs": [
        {
          "indexed": true,
          "internalType": "uint256",
          "name": "id",
          "type": "uint256"
        },
        {
          "indexed": true,
          "internalType": "address",
          "name": "caller",
          "type": "address"
        },
        {
          "indexed": false,
          "internalType": "uint256",
          "name": "amount",
          "type": "uint256"
        }
      ],
      "name": "Pledge",
      "type": "event"
    },
    {
      "anonymous": false,
      "inputs": [
        {
          "indexed": false,
          "internalType": "string",
          "name": "proposalId",
          "type": "string"
        },
        {
          "indexed": false,
          "internalType": "string",
          "name": "name",
          "type": "string"
        },
        {
          "indexed": false,
          "internalType": "string",
          "name": "description",
          "type": "string"
        },
        {
          "indexed": false,
          "internalType": "uint256",
          "name": "fundsGoal",
          "type": "uint256"
        }
      ],
      "name": "ProjectCreated",
      "type": "event"
    },
    {
      "anonymous": false,
      "inputs": [
        {
          "indexed": false,
          "internalType": "string",
          "name": "proposalId",
          "type": "string"
        },
        {
          "indexed": false,
          "internalType": "uint256",
          "name": "value",
          "type": "uint256"
        }
      ],
      "name": "ProjectFunded",
      "type": "event"
    },
    {
      "anonymous": false,
      "inputs": [
        {
          "indexed": false,
          "internalType": "uint256",
          "name": "id",
          "type": "uint256"
        },
        {
          "indexed": false,
          "internalType": "enum OpenFunds.CurrentState",
          "name": "state",
          "type": "uint8"
        }
      ],
      "name": "ProjectStateChanged",
      "type": "event"
    },
    {
      "anonymous": false,
      "inputs": [
        {
          "indexed": true,
          "internalType": "uint256",
          "name": "_id",
          "type": "uint256"
        },
        {
          "indexed": true,
          "internalType": "address",
          "name": "caller",
          "type": "address"
        },
        {
          "indexed": false,
          "internalType": "uint256",
          "name": "amount",
          "type": "uint256"
        }
      ],
      "name": "Refund",
      "type": "event"
    },
    {
      "anonymous": false,
      "inputs": [
        {
          "indexed": true,
          "internalType": "uint256",
          "name": "id",
          "type": "uint256"
        },
        {
          "indexed": true,
          "internalType": "address",
          "name": "caller",
          "type": "address"
        },
        {
          "indexed": false,
          "internalType": "uint256",
          "name": "amount",
          "type": "uint256"
        }
      ],
      "name": "Unpledge",
      "type": "event"
    },
    {
      "inputs": [
        {
          "internalType": "enum OpenFunds.CurrentState",
          "name": "_newState",
          "type": "uint8"
        },
        {
          "internalType": "uint256",
          "name": "projectId",
          "type": "uint256"
        }
      ],
      "name": "ChangeState",
      "outputs": [],
      "stateMutability": "nonpayable",
      "type": "function"
    },
    {
      "inputs": [
        {
          "internalType": "string",
          "name": "_Id",
          "type": "string"
        },
        {
          "internalType": "string",
          "name": "_name",
          "type": "string"
        },
        {
          "internalType": "string",
          "name": "_description",
          "type": "string"
        },
        {
          "internalType": "uint256",
          "name": "_fundGoal",
          "type": "uint256"
        }
      ],
      "name": "CreateProject",
      "outputs": [],
      "stateMutability": "nonpayable",
      "type": "function"
    },
    {
      "inputs": [
        {
          "internalType": "uint256",
          "name": "_amount",
          "type": "uint256"
        }
      ],
      "name": "Fund",
      "outputs": [],
      "stateMutability": "payable",
      "type": "function"
    },
    {
      "inputs": [
        {
          "internalType": "uint256",
          "name": "projectId",
          "type": "uint256"
        }
      ],
      "name": "FundProject",
      "outputs": [],
      "stateMutability": "payable",
      "type": "function"
    },
    {
      "inputs": [],
      "name": "amount",
      "outputs": [
        {
          "internalType": "uint256",
          "name": "",
          "type": "uint256"
        }
      ],
      "stateMutability": "view",
      "type": "function"
    },
    {
      "inputs": [
        {
          "internalType": "uint256",
          "name": "",
          "type": "uint256"
        }
      ],
      "name": "campaigns",
      "outputs": [
        {
          "internalType": "address",
          "name": "creator",
          "type": "address"
        },
        {
          "internalType": "uint256",
          "name": "goal",
          "type": "uint256"
        },
        {
          "internalType": "uint256",
          "name": "pledged",
          "type": "uint256"
        },
        {
          "internalType": "uint32",
          "name": "startAt",
          "type": "uint32"
        },
        {
          "internalType": "uint32",
          "name": "endAt",
          "type": "uint32"
        },
        {
          "internalType": "bool",
          "name": "claimed",
          "type": "bool"
        }
      ],
      "stateMutability": "view",
      "type": "function"
    },
    {
      "inputs": [
        {
          "internalType": "string",
          "name": "",
          "type": "string"
        },
        {
          "internalType": "uint256",
          "name": "",
          "type": "uint256"
        }
      ],
      "name": "contributions",
      "outputs": [
        {
          "internalType": "address",
          "name": "contributer",
          "type": "address"
        },
        {
          "internalType": "uint256",
          "name": "value",
          "type": "uint256"
        }
      ],
      "stateMutability": "view",
      "type": "function"
    },
    {
      "inputs": [],
      "name": "count",
      "outputs": [
        {
          "internalType": "uint256",
          "name": "",
          "type": "uint256"
        }
      ],
      "stateMutability": "view",
      "type": "function"
    },
    {
      "inputs": [],
      "name": "creator",
      "outputs": [
        {
          "internalType": "address",
          "name": "",
          "type": "address"
        }
      ],
      "stateMutability": "view",
      "type": "function"
    },
    {
      "inputs": [],
      "name": "description",
      "outputs": [
        {
          "internalType": "string",
          "name": "",
          "type": "string"
        }
      ],
      "stateMutability": "view",
      "type": "function"
    },
    {
      "inputs": [],
      "name": "fundGoal",
      "outputs": [
        {
          "internalType": "uint256",
          "name": "",
          "type": "uint256"
        }
      ],
      "stateMutability": "view",
      "type": "function"
    },
    {
      "inputs": [],
      "name": "id",
      "outputs": [
        {
          "internalType": "uint32",
          "name": "",
          "type": "uint32"
        }
      ],
      "stateMutability": "view",
      "type": "function"
    },
    {
      "inputs": [],
      "name": "name",
      "outputs": [
        {
          "internalType": "string",
          "name": "",
          "type": "string"
        }
      ],
      "stateMutability": "view",
      "type": "function"
    },
    {
      "inputs": [
        {
          "internalType": "uint256",
          "name": "",
          "type": "uint256"
        },
        {
          "internalType": "address",
          "name": "",
          "type": "address"
        }
      ],
      "name": "pledgeAmount",
      "outputs": [
        {
          "internalType": "uint256",
          "name": "",
          "type": "uint256"
        }
      ],
      "stateMutability": "view",
      "type": "function"
    },
    {
      "inputs": [
        {
          "internalType": "uint256",
          "name": "",
          "type": "uint256"
        }
      ],
      "name": "projects",
      "outputs": [
        {
          "internalType": "string",
          "name": "proposalId",
          "type": "string"
        },
        {
          "internalType": "string",
          "name": "name",
          "type": "string"
        },
        {
          "internalType": "string",
          "name": "desciption",
          "type": "string"
        },
        {
          "internalType": "address payable",
          "name": "owner",
          "type": "address"
        },
        {
          "internalType": "enum OpenFunds.CurrentState",
          "name": "state",
          "type": "uint8"
        },
        {
          "internalType": "uint256",
          "name": "fund",
          "type": "uint256"
        },
        {
          "internalType": "uint256",
          "name": "fundGoal",
          "type": "uint256"
        }
      ],
      "stateMutability": "view",
      "type": "function"
    },
    {
      "inputs": [],
      "name": "requiredFund",
      "outputs": [
        {
          "internalType": "uint256",
          "name": "",
          "type": "uint256"
        }
      ],
      "stateMutability": "view",
      "type": "function"
    },
    {
      "inputs": [],
      "name": "token",
      "outputs": [
        {
          "internalType": "contract IERC20",
          "name": "",
          "type": "address"
        }
      ],
      "stateMutability": "view",
      "type": "function"
    },
    {
      "inputs": [],
      "name": "tokenCounter",
      "outputs": [
        {
          "internalType": "uint256",
          "name": "",
          "type": "uint256"
        }
      ],
      "stateMutability": "view",
      "type": "function"
    },
    {
      "inputs": [
        {
          "internalType": "uint256",
          "name": "_goal",
          "type": "uint256"
        },
        {
          "internalType": "uint32",
          "name": "_startAt",
          "type": "uint32"
        },
        {
          "internalType": "uint32",
          "name": "_endAt",
          "type": "uint32"
        }
      ],
      "name": "launch",
      "outputs": [],
      "stateMutability": "nonpayable",
      "type": "function"
    },
    {
      "inputs": [
        {
          "internalType": "uint256",
          "name": "_id",
          "type": "uint256"
        }
      ],
      "name": "cancel",
      "outputs": [],
      "stateMutability": "nonpayable",
      "type": "function"
    },
    {
      "inputs": [
        {
          "internalType": "uint256",
          "name": "_id",
          "type": "uint256"
        },
        {
          "internalType": "uint256",
          "name": "_amount",
          "type": "uint256"
        }
      ],
      "name": "pledge",
      "outputs": [],
      "stateMutability": "nonpayable",
      "type": "function"
    },
    {
      "inputs": [
        {
          "internalType": "uint256",
          "name": "_id",
          "type": "uint256"
        },
        {
          "internalType": "uint256",
          "name": "_amount",
          "type": "uint256"
        }
      ],
      "name": "unpledge",
      "outputs": [],
      "stateMutability": "nonpayable",
      "type": "function"
    },
    {
      "inputs": [
        {
          "internalType": "uint256",
          "name": "_id",
          "type": "uint256"
        }
      ],
      "name": "claim",
      "outputs": [],
      "stateMutability": "nonpayable",
      "type": "function"
    },
    {
      "inputs": [
        {
          "internalType": "uint256",
          "name": "_id",
          "type": "uint256"
        }
      ],
      "name": "refund",
      "outputs": [],
      "stateMutability": "nonpayable",
      "type": "function"
    },
    {
      "inputs": [],
      "name": "getCampaign",
      "outputs": [
        {
          "internalType": "address[]",
          "name": "",
          "type": "address[]"
        }
      ],
      "stateMutability": "view",
      "type": "function"
    }
  ],
  "bytecode": "0x60a06040526000600260006101000a81548163ffffffff021916908363ffffffff1602179055503480156200003357600080fd5b5060405162003ece38038062003ece833981810160405281019062000059919062000210565b61014d60008073ffffffffffffffffffffffffffffffffffffffff163373ffffffffffffffffffffffffffffffffffffffff161415620000d0576040517f08c379a0000000000000000000000000000000000000000000000000000000008152600401620000c790620002a3565b60405180910390fd5b670429d069189e000082116200011d576040517f08c379a0000000000000000000000000000000000000000000000000000000008152600401620001149062000315565b60405180910390fd5b60008163ffffffff161462000169576040517f08c379a0000000000000000000000000000000000000000000000000000000008152600401620001609062000387565b60405180910390fd5b50508073ffffffffffffffffffffffffffffffffffffffff1660808173ffffffffffffffffffffffffffffffffffffffff168152505050620003a9565b600080fd5b600073ffffffffffffffffffffffffffffffffffffffff82169050919050565b6000620001d882620001ab565b9050919050565b620001ea81620001cb565b8114620001f657600080fd5b50565b6000815190506200020a81620001df565b92915050565b600060208284031215620002295762000228620001a6565b5b60006200023984828501620001f9565b91505092915050565b600082825260208201905092915050565b7f6e6f7420612076616c6964206163636f756e7400000000000000000000000000600082015250565b60006200028b60138362000242565b9150620002988262000253565b602082019050919050565b60006020820190508181036000830152620002be816200027c565b9050919050565b7f66756e642076616c756520697320746f6f206c6f770000000000000000000000600082015250565b6000620002fd60158362000242565b91506200030a82620002c5565b602082019050919050565b600060208201905081810360008301526200033081620002ee565b9050919050565b7f43616d706169676e206973206163746976650000000000000000000000000000600082015250565b60006200036f60128362000242565b91506200037c8262000337565b602082019050919050565b60006020820190508181036000830152620003a28162000360565b9050919050565b608051613af4620003da60003960008181610a8d015281816115f50152818161237301526124ea0152613af46000f3fe6080604052600436106101665760003560e01c80635e97e9b3116100d15780638743ae891161008a578063d082e38111610064578063d082e3811461051a578063e15fa5b214610545578063fc0c546a14610570578063fde327be1461059b57610166565b80638743ae8914610487578063aa8c217c146104c4578063af640d0f146104ef57610166565b80635e97e9b314610387578063711853ab146103b05780637284e416146103d95780637f3fcdd91461040457806380ea0f81146104425780638676bc181461046b57610166565b8063278ecde111610123578063278ecde11461029c57806327b2dc14146102c55780632c63f146146102e1578063379607f51461030a5780633c471c191461033357806340e58ee51461035e57610166565b806302d05d3f1461016b57806306661abd1461019657806306fdde03146101c1578063107046bd146101ec578063141961bc1461022f578063236b8e3a14610271575b600080fd5b34801561017757600080fd5b506101806105c4565b60405161018d91906126c1565b60405180910390f35b3480156101a257600080fd5b506101ab6105ea565b6040516101b891906126f5565b60405180910390f35b3480156101cd57600080fd5b506101d66105f0565b6040516101e391906127a9565b60405180910390f35b3480156101f857600080fd5b50610213600480360381019061020e919061280b565b61067e565b60405161022697969594939291906128d0565b60405180910390f35b34801561023b57600080fd5b506102566004803603810190610251919061280b565b610895565b6040516102689695949392919061298e565b60405180910390f35b34801561027d57600080fd5b5061028661091e565b6040516102939190612aad565b60405180910390f35b3480156102a857600080fd5b506102c360048036038101906102be919061280b565b610923565b005b6102df60048036038101906102da919061280b565b610b7e565b005b3480156102ed57600080fd5b5061030860048036038101906103039190612afb565b610bde565b005b34801561031657600080fd5b50610331600480360381019061032c919061280b565b610e76565b005b34801561033f57600080fd5b50610348611039565b60405161035591906126f5565b60405180910390f35b34801561036a57600080fd5b506103856004803603810190610380919061280b565b61103f565b005b34801561039357600080fd5b506103ae60048036038101906103a99190612ce3565b6112ba565b005b3480156103bc57600080fd5b506103d760048036038101906103d29190612da6565b6114fd565b005b3480156103e557600080fd5b506103ee611697565b6040516103fb91906127a9565b60405180910390f35b34801561041057600080fd5b5061042b60048036038101906104269190612de6565b611725565b604051610439929190612e42565b60405180910390f35b34801561044e57600080fd5b5061046960048036038101906104649190612e90565b61179c565b005b6104856004803603810190610480919061280b565b611cbe565b005b34801561049357600080fd5b506104ae60048036038101906104a99190612efc565b612324565b6040516104bb91906126f5565b60405180910390f35b3480156104d057600080fd5b506104d9612349565b6040516104e691906126f5565b60405180910390f35b3480156104fb57600080fd5b5061050461234f565b6040516105119190612f3c565b60405180910390f35b34801561052657600080fd5b5061052f612365565b60405161053c91906126f5565b60405180910390f35b34801561055157600080fd5b5061055a61236b565b60405161056791906126f5565b60405180910390f35b34801561057c57600080fd5b50610585612371565b6040516105929190612fb6565b60405180910390f35b3480156105a757600080fd5b506105c260048036038101906105bd9190612da6565b612395565b005b600560009054906101000a900473ffffffffffffffffffffffffffffffffffffffff1681565b600c5481565b600380546105fd90613000565b80601f016020809104026020016040519081016040528092919081815260200182805461062990613000565b80156106765780601f1061064b57610100808354040283529160200191610676565b820191906000526020600020905b81548152906001019060200180831161065957829003601f168201915b505050505081565b600a818154811061068e57600080fd5b90600052602060002090600602016000915090508060000180546106b190613000565b80601f01602080910402602001604051908101604052809291908181526020018280546106dd90613000565b801561072a5780601f106106ff5761010080835404028352916020019161072a565b820191906000526020600020905b81548152906001019060200180831161070d57829003601f168201915b50505050509080600101805461073f90613000565b80601f016020809104026020016040519081016040528092919081815260200182805461076b90613000565b80156107b85780601f1061078d576101008083540402835291602001916107b8565b820191906000526020600020905b81548152906001019060200180831161079b57829003601f168201915b5050505050908060020180546107cd90613000565b80601f01602080910402602001604051908101604052809291908181526020018280546107f990613000565b80156108465780601f1061081b57610100808354040283529160200191610846565b820191906000526020600020905b81548152906001019060200180831161082957829003601f168201915b5050505050908060030160009054906101000a900473ffffffffffffffffffffffffffffffffffffffff16908060030160149054906101000a900460ff16908060040154908060050154905087565b600d6020528060005260406000206000915090508060000160009054906101000a900473ffffffffffffffffffffffffffffffffffffffff16908060010154908060020154908060030160009054906101000a900463ffffffff16908060030160049054906101000a900463ffffffff16908060030160089054906101000a900460ff16905086565b606090565b6000600d600083815260200190815260200160002090508060030160049054906101000a900463ffffffff1663ffffffff164211610996576040517f08c379a000000000000000000000000000000000000000000000000000000000815260040161098d9061307e565b60405180910390fd5b80600101548160020154106109e0576040517f08c379a00000000000000000000000000000000000000000000000000000000081526004016109d7906130ea565b60405180910390fd5b6000600e600084815260200190815260200160002060003373ffffffffffffffffffffffffffffffffffffffff1673ffffffffffffffffffffffffffffffffffffffff1681526020019081526020016000205490506000600e600085815260200190815260200160002060003373ffffffffffffffffffffffffffffffffffffffff1673ffffffffffffffffffffffffffffffffffffffff168152602001908152602001600020819055507f000000000000000000000000000000000000000000000000000000000000000073ffffffffffffffffffffffffffffffffffffffff1663a9059cbb33836040518363ffffffff1660e01b8152600401610ae6929190612e42565b6020604051808303816000875af1158015610b05573d6000803e3d6000fd5b505050506040513d601f19601f82011682018060405250810190610b299190613136565b503373ffffffffffffffffffffffffffffffffffffffff16837f21e12a7cad0da5928167e1084ea4d5fdf8d9af66657a2543a9ac76a0ca08147783604051610b7191906126f5565b60405180910390a3505050565b34811015610bc1576040517f08c379a0000000000000000000000000000000000000000000000000000000008152600401610bb890613189565b60405180910390fd5b600160066000828254610bd491906131d8565b9250508190555050565b428263ffffffff161015610c27576040517f08c379a0000000000000000000000000000000000000000000000000000000008152600401610c1e9061327a565b60405180910390fd5b8163ffffffff168163ffffffff161015610c76576040517f08c379a0000000000000000000000000000000000000000000000000000000008152600401610c6d906132e6565b60405180910390fd5b6276a70042610c8591906131d8565b8163ffffffff161115610ccd576040517f08c379a0000000000000000000000000000000000000000000000000000000008152600401610cc490613352565b60405180910390fd5b6001600c6000828254610ce091906131d8565b925050819055506040518060c001604052803373ffffffffffffffffffffffffffffffffffffffff168152602001848152602001600081526020018363ffffffff1681526020018263ffffffff16815260200160001515815250600d6000600c54815260200190815260200160002060008201518160000160006101000a81548173ffffffffffffffffffffffffffffffffffffffff021916908373ffffffffffffffffffffffffffffffffffffffff160217905550602082015181600101556040820151816002015560608201518160030160006101000a81548163ffffffff021916908363ffffffff16021790555060808201518160030160046101000a81548163ffffffff021916908363ffffffff16021790555060a08201518160030160086101000a81548160ff0219169083151502179055509050503373ffffffffffffffffffffffffffffffffffffffff167f0601cd0d650b473037e838a2696d41e654433d065b3f56b28d1d3302e44a304f600c54858585604051610e699493929190613372565b60405180910390a2505050565b6000600d600083815260200190815260200160002090508060000160009054906101000a900473ffffffffffffffffffffffffffffffffffffffff1673ffffffffffffffffffffffffffffffffffffffff163373ffffffffffffffffffffffffffffffffffffffff1614610f1f576040517f08c379a0000000000000000000000000000000000000000000000000000000008152600401610f1690613403565b60405180910390fd5b8060030160049054906101000a900463ffffffff1663ffffffff164211610f7b576040517f08c379a0000000000000000000000000000000000000000000000000000000008152600401610f729061307e565b60405180910390fd5b806001015481600201541015610fc6576040517f08c379a0000000000000000000000000000000000000000000000000000000008152600401610fbd906130ea565b60405180910390fd5b8060030160089054906101000a900460ff1615611018576040517f08c379a000000000000000000000000000000000000000000000000000000000815260040161100f9061346f565b60405180910390fd5b60018160030160086101000a81548160ff0219169083151502179055505050565b600b5481565b6000600d60008381526020019081526020016000206040518060c00160405290816000820160009054906101000a900473ffffffffffffffffffffffffffffffffffffffff1673ffffffffffffffffffffffffffffffffffffffff1673ffffffffffffffffffffffffffffffffffffffff16815260200160018201548152602001600282015481526020016003820160009054906101000a900463ffffffff1663ffffffff1663ffffffff1681526020016003820160049054906101000a900463ffffffff1663ffffffff1663ffffffff1681526020016003820160089054906101000a900460ff1615151515815250509050806000015173ffffffffffffffffffffffffffffffffffffffff163373ffffffffffffffffffffffffffffffffffffffff16146111a4576040517f08c379a000000000000000000000000000000000000000000000000000000000815260040161119b906134db565b60405180910390fd5b806060015163ffffffff1642106111f0576040517f08c379a00000000000000000000000000000000000000000000000000000000081526004016111e790613547565b60405180910390fd5b600d6000838152602001908152602001600020600080820160006101000a81549073ffffffffffffffffffffffffffffffffffffffff0219169055600182016000905560028201600090556003820160006101000a81549063ffffffff02191690556003820160046101000a81549063ffffffff02191690556003820160086101000a81549060ff021916905550507f8bf30e7ff26833413be5f69e1d373744864d600b664204b4a2f9844a8eedb9ed826040516112ae91906126f5565b60405180910390a15050565b60006040518060e0016040528088815260200187878080601f016020809104026020016040519081016040528093929190818152602001838380828437600081840152601f19601f82011690508083019250505050505050815260200185858080601f016020809104026020016040519081016040528093929190818152602001838380828437600081840152601f19601f8201169050808301925050505050505081526020013373ffffffffffffffffffffffffffffffffffffffff1681526020016000600181111561139157611390612859565b5b815260200160008152602001838152509050600a81908060018154018082558091505060019003906000526020600020906006020160009091909190915060008201518160000190805190602001906113eb9291906125dd565b5060208201518160010190805190602001906114089291906125dd565b5060408201518160020190805190602001906114259291906125dd565b5060608201518160030160006101000a81548173ffffffffffffffffffffffffffffffffffffffff021916908373ffffffffffffffffffffffffffffffffffffffff16021790555060808201518160030160146101000a81548160ff0219169083600181111561149857611497612859565b5b021790555060a0820151816004015560c0820151816005015550507f472657fb15180beb1548b31adee57ada1efa0dbd19d25622c6f1a27d0c97c2378787878787876040516114ec96959493929190613594565b60405180910390a150505050505050565b6000600d600084815260200190815260200160002090508060030160049054906101000a900463ffffffff1663ffffffff16421115611571576040517f08c379a00000000000000000000000000000000000000000000000000000000081526004016115689061363e565b60405180910390fd5b81816002016000828254611585919061365e565b9250508190555081600e600085815260200190815260200160002060003373ffffffffffffffffffffffffffffffffffffffff1673ffffffffffffffffffffffffffffffffffffffff16815260200190815260200160002060008282546115ec919061365e565b925050819055507f000000000000000000000000000000000000000000000000000000000000000073ffffffffffffffffffffffffffffffffffffffff1663a9059cbb33846040518363ffffffff1660e01b815260040161164e929190612e42565b6020604051808303816000875af115801561166d573d6000803e3d6000fd5b505050506040513d601f19601f820116820180604052508101906116919190613136565b50505050565b600480546116a490613000565b80601f01602080910402602001604051908101604052809291908181526020018280546116d090613000565b801561171d5780601f106116f25761010080835404028352916020019161171d565b820191906000526020600020905b81548152906001019060200180831161170057829003601f168201915b505050505081565b600982805160208101820180518482526020830160208501208183528095505050505050818154811061175757600080fd5b9060005260206000209060020201600091509150508060000160009054906101000a900473ffffffffffffffffffffffffffffffffffffffff16908060010154905082565b803373ffffffffffffffffffffffffffffffffffffffff16600a82815481106117c8576117c7613692565b5b906000526020600020906006020160030160009054906101000a900473ffffffffffffffffffffffffffffffffffffffff1673ffffffffffffffffffffffffffffffffffffffff1614611850576040517f08c379a00000000000000000000000000000000000000000000000000000000081526004016118479061370d565b60405180910390fd5b6000600a838154811061186657611865613692565b5b90600052602060002090600602016040518060e001604052908160008201805461188f90613000565b80601f01602080910402602001604051908101604052809291908181526020018280546118bb90613000565b80156119085780601f106118dd57610100808354040283529160200191611908565b820191906000526020600020905b8154815290600101906020018083116118eb57829003601f168201915b5050505050815260200160018201805461192190613000565b80601f016020809104026020016040519081016040528092919081815260200182805461194d90613000565b801561199a5780601f1061196f5761010080835404028352916020019161199a565b820191906000526020600020905b81548152906001019060200180831161197d57829003601f168201915b505050505081526020016002820180546119b390613000565b80601f01602080910402602001604051908101604052809291908181526020018280546119df90613000565b8015611a2c5780601f10611a0157610100808354040283529160200191611a2c565b820191906000526020600020905b815481529060010190602001808311611a0f57829003601f168201915b505050505081526020016003820160009054906101000a900473ffffffffffffffffffffffffffffffffffffffff1673ffffffffffffffffffffffffffffffffffffffff1673ffffffffffffffffffffffffffffffffffffffff1681526020016003820160149054906101000a900460ff166001811115611ab057611aaf612859565b5b6001811115611ac257611ac1612859565b5b8152602001600482015481526020016005820154815250509050836001811115611aef57611aee612859565b5b81608001516001811115611b0657611b05612859565b5b1415611b47576040517f08c379a0000000000000000000000000000000000000000000000000000000008152600401611b3e90613779565b60405180910390fd5b8381608001906001811115611b5f57611b5e612859565b5b90816001811115611b7357611b72612859565b5b8152505080600a8481548110611b8c57611b8b613692565b5b90600052602060002090600602016000820151816000019080519060200190611bb69291906125dd565b506020820151816001019080519060200190611bd39291906125dd565b506040820151816002019080519060200190611bf09291906125dd565b5060608201518160030160006101000a81548173ffffffffffffffffffffffffffffffffffffffff021916908373ffffffffffffffffffffffffffffffffffffffff16021790555060808201518160030160146101000a81548160ff02191690836001811115611c6357611c62612859565b5b021790555060a0820151816004015560c082015181600501559050507f84748ac78940dbf14129c6da5df32a04b530b472eaddadb4d7b62ea4e88bd46d8385604051611cb0929190613799565b60405180910390a150505050565b803373ffffffffffffffffffffffffffffffffffffffff16600a8281548110611cea57611ce9613692565b5b906000526020600020906006020160030160009054906101000a900473ffffffffffffffffffffffffffffffffffffffff1673ffffffffffffffffffffffffffffffffffffffff161415611d73576040517f08c379a0000000000000000000000000000000000000000000000000000000008152600401611d6a9061380e565b60405180910390fd5b6000600a8381548110611d8957611d88613692565b5b90600052602060002090600602016040518060e0016040529081600082018054611db290613000565b80601f0160208091040260200160405190810160405280929190818152602001828054611dde90613000565b8015611e2b5780601f10611e0057610100808354040283529160200191611e2b565b820191906000526020600020905b815481529060010190602001808311611e0e57829003601f168201915b50505050508152602001600182018054611e4490613000565b80601f0160208091040260200160405190810160405280929190818152602001828054611e7090613000565b8015611ebd5780601f10611e9257610100808354040283529160200191611ebd565b820191906000526020600020905b815481529060010190602001808311611ea057829003601f168201915b50505050508152602001600282018054611ed690613000565b80601f0160208091040260200160405190810160405280929190818152602001828054611f0290613000565b8015611f4f5780601f10611f2457610100808354040283529160200191611f4f565b820191906000526020600020905b815481529060010190602001808311611f3257829003601f168201915b505050505081526020016003820160009054906101000a900473ffffffffffffffffffffffffffffffffffffffff1673ffffffffffffffffffffffffffffffffffffffff1673ffffffffffffffffffffffffffffffffffffffff1681526020016003820160149054906101000a900460ff166001811115611fd357611fd2612859565b5b6001811115611fe557611fe4612859565b5b815260200160048201548152602001600582015481525050905060018081111561201257612011612859565b5b8160800151600181111561202957612028612859565b5b141561206a576040517f08c379a0000000000000000000000000000000000000000000000000000000008152600401612061906138a0565b60405180910390fd5b600034116120ad576040517f08c379a00000000000000000000000000000000000000000000000000000000081526004016120a49061390c565b60405180910390fd5b806060015173ffffffffffffffffffffffffffffffffffffffff166108fc349081150290604051600060405180830381858888f193505050501580156120f7573d6000803e3d6000fd5b50348160a00181815161210a91906131d8565b9150818152505080600a848154811061212657612125613692565b5b906000526020600020906006020160008201518160000190805190602001906121509291906125dd565b50602082015181600101908051906020019061216d9291906125dd565b50604082015181600201908051906020019061218a9291906125dd565b5060608201518160030160006101000a81548173ffffffffffffffffffffffffffffffffffffffff021916908373ffffffffffffffffffffffffffffffffffffffff16021790555060808201518160030160146101000a81548160ff021916908360018111156121fd576121fc612859565b5b021790555060a0820151816004015560c082015181600501559050506009816000015160405161222d9190613968565b908152602001604051809103902060405180604001604052803373ffffffffffffffffffffffffffffffffffffffff16815260200134815250908060018154018082558091505060019003906000526020600020906002020160009091909190915060008201518160000160006101000a81548173ffffffffffffffffffffffffffffffffffffffff021916908373ffffffffffffffffffffffffffffffffffffffff1602179055506020820151816001015550507f925c00924682e835f48a31e5b83cb323934f40a811c5a8f44a662915035033c681600001513460405161231792919061397f565b60405180910390a1505050565b600e602052816000526040600020602052806000526040600020600091509150505481565b60075481565b600260009054906101000a900463ffffffff1681565b60065481565b60085481565b7f000000000000000000000000000000000000000000000000000000000000000081565b6000600d600084815260200190815260200160002090508060030160009054906101000a900463ffffffff1663ffffffff16421015612409576040517f08c379a0000000000000000000000000000000000000000000000000000000008152600401612400906139fb565b60405180910390fd5b8060030160049054906101000a900463ffffffff1663ffffffff16421115612466576040517f08c379a000000000000000000000000000000000000000000000000000000000815260040161245d90613a67565b60405180910390fd5b8181600201600082825461247a91906131d8565b9250508190555081600e600085815260200190815260200160002060003373ffffffffffffffffffffffffffffffffffffffff1673ffffffffffffffffffffffffffffffffffffffff16815260200190815260200160002060008282546124e191906131d8565b925050819055507f000000000000000000000000000000000000000000000000000000000000000073ffffffffffffffffffffffffffffffffffffffff166323b872dd3330856040518463ffffffff1660e01b815260040161254593929190613a87565b6020604051808303816000875af1158015612564573d6000803e3d6000fd5b505050506040513d601f19601f820116820180604052508101906125889190613136565b503373ffffffffffffffffffffffffffffffffffffffff16837f06bdb975df800a73232998e71ed585d536222f1dfeaa622d7f62a23ada686c82846040516125d091906126f5565b60405180910390a3505050565b8280546125e990613000565b90600052602060002090601f01602090048101928261260b5760008555612652565b82601f1061262457805160ff1916838001178555612652565b82800160010185558215612652579182015b82811115612651578251825591602001919060010190612636565b5b50905061265f9190612663565b5090565b5b8082111561267c576000816000905550600101612664565b5090565b600073ffffffffffffffffffffffffffffffffffffffff82169050919050565b60006126ab82612680565b9050919050565b6126bb816126a0565b82525050565b60006020820190506126d660008301846126b2565b92915050565b6000819050919050565b6126ef816126dc565b82525050565b600060208201905061270a60008301846126e6565b92915050565b600081519050919050565b600082825260208201905092915050565b60005b8381101561274a57808201518184015260208101905061272f565b83811115612759576000848401525b50505050565b6000601f19601f8301169050919050565b600061277b82612710565b612785818561271b565b935061279581856020860161272c565b61279e8161275f565b840191505092915050565b600060208201905081810360008301526127c38184612770565b905092915050565b6000604051905090565b600080fd5b600080fd5b6127e8816126dc565b81146127f357600080fd5b50565b600081359050612805816127df565b92915050565b600060208284031215612821576128206127d5565b5b600061282f848285016127f6565b91505092915050565b600061284382612680565b9050919050565b61285381612838565b82525050565b7f4e487b7100000000000000000000000000000000000000000000000000000000600052602160045260246000fd5b6002811061289957612898612859565b5b50565b60008190506128aa82612888565b919050565b60006128ba8261289c565b9050919050565b6128ca816128af565b82525050565b600060e08201905081810360008301526128ea818a612770565b905081810360208301526128fe8189612770565b905081810360408301526129128188612770565b9050612921606083018761284a565b61292e60808301866128c1565b61293b60a08301856126e6565b61294860c08301846126e6565b98975050505050505050565b600063ffffffff82169050919050565b61296d81612954565b82525050565b60008115159050919050565b61298881612973565b82525050565b600060c0820190506129a360008301896126b2565b6129b060208301886126e6565b6129bd60408301876126e6565b6129ca6060830186612964565b6129d76080830185612964565b6129e460a083018461297f565b979650505050505050565b600081519050919050565b600082825260208201905092915050565b6000819050602082019050919050565b612a24816126a0565b82525050565b6000612a368383612a1b565b60208301905092915050565b6000602082019050919050565b6000612a5a826129ef565b612a6481856129fa565b9350612a6f83612a0b565b8060005b83811015612aa0578151612a878882612a2a565b9750612a9283612a42565b925050600181019050612a73565b5085935050505092915050565b60006020820190508181036000830152612ac78184612a4f565b905092915050565b612ad881612954565b8114612ae357600080fd5b50565b600081359050612af581612acf565b92915050565b600080600060608486031215612b1457612b136127d5565b5b6000612b22868287016127f6565b9350506020612b3386828701612ae6565b9250506040612b4486828701612ae6565b9150509250925092565b600080fd5b600080fd5b7f4e487b7100000000000000000000000000000000000000000000000000000000600052604160045260246000fd5b612b908261275f565b810181811067ffffffffffffffff82111715612baf57612bae612b58565b5b80604052505050565b6000612bc26127cb565b9050612bce8282612b87565b919050565b600067ffffffffffffffff821115612bee57612bed612b58565b5b612bf78261275f565b9050602081019050919050565b82818337600083830152505050565b6000612c26612c2184612bd3565b612bb8565b905082815260208101848484011115612c4257612c41612b53565b5b612c4d848285612c04565b509392505050565b600082601f830112612c6a57612c69612b4e565b5b8135612c7a848260208601612c13565b91505092915050565b600080fd5b600080fd5b60008083601f840112612ca357612ca2612b4e565b5b8235905067ffffffffffffffff811115612cc057612cbf612c83565b5b602083019150836001820283011115612cdc57612cdb612c88565b5b9250929050565b60008060008060008060808789031215612d0057612cff6127d5565b5b600087013567ffffffffffffffff811115612d1e57612d1d6127da565b5b612d2a89828a01612c55565b965050602087013567ffffffffffffffff811115612d4b57612d4a6127da565b5b612d5789828a01612c8d565b9550955050604087013567ffffffffffffffff811115612d7a57612d796127da565b5b612d8689828a01612c8d565b93509350506060612d9989828a016127f6565b9150509295509295509295565b60008060408385031215612dbd57612dbc6127d5565b5b6000612dcb858286016127f6565b9250506020612ddc858286016127f6565b9150509250929050565b60008060408385031215612dfd57612dfc6127d5565b5b600083013567ffffffffffffffff811115612e1b57612e1a6127da565b5b612e2785828601612c55565b9250506020612e38858286016127f6565b9150509250929050565b6000604082019050612e5760008301856126b2565b612e6460208301846126e6565b9392505050565b60028110612e7857600080fd5b50565b600081359050612e8a81612e6b565b92915050565b60008060408385031215612ea757612ea66127d5565b5b6000612eb585828601612e7b565b9250506020612ec6858286016127f6565b9150509250929050565b612ed9816126a0565b8114612ee457600080fd5b50565b600081359050612ef681612ed0565b92915050565b60008060408385031215612f1357612f126127d5565b5b6000612f21858286016127f6565b9250506020612f3285828601612ee7565b9150509250929050565b6000602082019050612f516000830184612964565b92915050565b6000819050919050565b6000612f7c612f77612f7284612680565b612f57565b612680565b9050919050565b6000612f8e82612f61565b9050919050565b6000612fa082612f83565b9050919050565b612fb081612f95565b82525050565b6000602082019050612fcb6000830184612fa7565b92915050565b7f4e487b7100000000000000000000000000000000000000000000000000000000600052602260045260246000fd5b6000600282049050600182168061301857607f821691505b6020821081141561302c5761302b612fd1565b5b50919050565b7f6e6f7420656e6465640000000000000000000000000000000000000000000000600082015250565b600061306860098361271b565b915061307382613032565b602082019050919050565b600060208201905081810360008301526130978161305b565b9050919050565b7f706c6564676564203c20676f616c000000000000000000000000000000000000600082015250565b60006130d4600e8361271b565b91506130df8261309e565b602082019050919050565b60006020820190508181036000830152613103816130c7565b9050919050565b61311381612973565b811461311e57600080fd5b50565b6000815190506131308161310a565b92915050565b60006020828403121561314c5761314b6127d5565b5b600061315a84828501613121565b91505092915050565b50565b600061317360008361271b565b915061317e82613163565b600082019050919050565b600060208201905081810360008301526131a281613166565b9050919050565b7f4e487b7100000000000000000000000000000000000000000000000000000000600052601160045260246000fd5b60006131e3826126dc565b91506131ee836126dc565b9250827fffffffffffffffffffffffffffffffffffffffffffffffffffffffffffffffff03821115613223576132226131a9565b5b828201905092915050565b7f49747320612077726f6e67206e756d6265722000000000000000000000000000600082015250565b600061326460138361271b565b915061326f8261322e565b602082019050919050565b6000602082019050818103600083015261329381613257565b9050919050565b7f49742077696c6c20656e642061742069747320656e6444617465200000000000600082015250565b60006132d0601b8361271b565b91506132db8261329a565b602082019050919050565b600060208201905081810360008301526132ff816132c3565b9050919050565b7f49742073686f756c6420626520616c656173742033206d6f6e74687300000000600082015250565b600061333c601c8361271b565b915061334782613306565b602082019050919050565b6000602082019050818103600083015261336b8161332f565b9050919050565b600060808201905061338760008301876126e6565b61339460208301866126e6565b6133a16040830185612964565b6133ae6060830184612964565b95945050505050565b7f43616d706169676e206e6f742063726561746564000000000000000000000000600082015250565b60006133ed60148361271b565b91506133f8826133b7565b602082019050919050565b6000602082019050818103600083015261341c816133e0565b9050919050565b7f636c61696d656400000000000000000000000000000000000000000000000000600082015250565b600061345960078361271b565b915061346482613423565b602082019050919050565b600060208201905081810360008301526134888161344c565b9050919050565b7f6e6f742073746172656400000000000000000000000000000000000000000000600082015250565b60006134c5600a8361271b565b91506134d08261348f565b602082019050919050565b600060208201905081810360008301526134f4816134b8565b9050919050565b7f73746172746564207468652046756e642d43616d706169676e00000000000000600082015250565b600061353160198361271b565b915061353c826134fb565b602082019050919050565b6000602082019050818103600083015261356081613524565b9050919050565b6000613573838561271b565b9350613580838584612c04565b6135898361275f565b840190509392505050565b600060808201905081810360008301526135ae8189612770565b905081810360208301526135c3818789613567565b905081810360408301526135d8818587613567565b90506135e760608301846126e6565b979650505050505050565b7f656e646564000000000000000000000000000000000000000000000000000000600082015250565b600061362860058361271b565b9150613633826135f2565b602082019050919050565b600060208201905081810360008301526136578161361b565b9050919050565b6000613669826126dc565b9150613674836126dc565b925082821015613687576136866131a9565b5b828203905092915050565b7f4e487b7100000000000000000000000000000000000000000000000000000000600052603260045260246000fd5b7f4e6f74206120636f6e7472696275746572000000000000000000000000000000600082015250565b60006136f760118361271b565b9150613702826136c1565b602082019050919050565b60006020820190508181036000830152613726816136ea565b9050919050565b7f616c7265616479206368616e6765640000000000000000000000000000000000600082015250565b6000613763600f8361271b565b915061376e8261372d565b602082019050919050565b6000602082019050818103600083015261379281613756565b9050919050565b60006040820190506137ae60008301856126e6565b6137bb60208301846128c1565b9392505050565b7f4173206f776e657220796f752063616e6e6f742066756e6420746f2073656c66600082015250565b60006137f860208361271b565b9150613803826137c2565b602082019050919050565b60006020820190508181036000830152613827816137eb565b9050919050565b7f2050726f6a6563742063616e6e6f7420726563696576652066756e647320697460008201527f20697320636c6f73656400000000000000000000000000000000000000000000602082015250565b600061388a602a8361271b565b91506138958261382e565b604082019050919050565b600060208201905081810360008301526138b98161387d565b9050919050565b7f2076616c75652063616e6e6f7420626520300000000000000000000000000000600082015250565b60006138f660128361271b565b9150613901826138c0565b602082019050919050565b60006020820190508181036000830152613925816138e9565b9050919050565b600081905092915050565b600061394282612710565b61394c818561392c565b935061395c81856020860161272c565b80840191505092915050565b60006139748284613937565b915081905092915050565b600060408201905081810360008301526139998185612770565b90506139a860208301846126e6565b9392505050565b7f4e6f742073746172746564207965740000000000000000000000000000000000600082015250565b60006139e5600f8361271b565b91506139f0826139af565b602082019050919050565b60006020820190508181036000830152613a14816139d8565b9050919050565b7f416c6561647920656e6465640000000000000000000000000000000000000000600082015250565b6000613a51600c8361271b565b9150613a5c82613a1b565b602082019050919050565b60006020820190508181036000830152613a8081613a44565b9050919050565b6000606082019050613a9c60008301866126b2565b613aa960208301856126b2565b613ab660408301846126e6565b94935050505056fea2646970667358221220f97fca35b46420fc4b160635d805ea5a689baae88ee1f4d52179029b2489f54064736f6c634300080c0033",
  "immutableReferences": {
    "75": [
      {
        "length": 32,
        "start": 2701
      },
      {
        "length": 32,
        "start": 5621
      },
      {
        "length": 32,
        "start": 9075
      },
      {
        "length": 32,
        "start": 9450
      }
    ]
  },
  "source": "// SPDX-License-Identifier: MIT\nimport  \"./OpenFund.sol\";\n// import \"../@openzeppelin/contracts/proxy/ERC1967/ERC1967Proxy.sol\";\n// import \"../@openzeppelin/contracts/access/Ownable.sol\";\nimport './IERC20.sol';\npragma experimental ABIEncoderV2;\npragma solidity >=0.8.3;\n\n\n// Making it to use our contract to create & interact and more with it\ncontract CampaignFactory is OpenFunds{\n// CRUD Events\n    event Cancel(uint id);\n    event Pledge(uint indexed id,address indexed caller, uint amount);\n    event Refund(uint indexed _id,address indexed caller,uint amount);\n    event Unpledge(uint indexed id,address indexed caller, uint amount);\n    event Launch(\n        uint id, \n        address indexed creator,\n        uint _goal,\n        uint32 _startAt,\n        uint32 _endAt\n    );\n    struct Campaign {\n        address creator;\n        uint goal;\n        uint pledged;\n        uint32 startAt;\n        uint32 endAt;\n        bool claimed;\n    }\n    uint public count;\n    // mapping count indexes to Campaign\n    mapping(uint => Campaign) public campaigns;\n    mapping(uint => mapping(address => uint)) public pledgeAmount;\n    \n    IERC20 public immutable token;\n// making IERC20 frame for each Campaigns\n    constructor(address _token) OpenFunds(333,0)  {\n        token = IERC20(_token);\n    }\n    function launch(\n        uint _goal,\n        uint32 _startAt,\n        uint32 _endAt\n    ) external { \n        require(_startAt >= block.timestamp,\"Its a wrong number \");\n        require(_endAt >= _startAt, \"It will end at its endDate \");\n        require(_endAt <= block.timestamp + 90 days,\"It should be aleast 3 months\");\n        count += 1;\n        campaigns[count] = Campaign({\n            creator: msg.sender,\n            goal: _goal,\n            pledged: 0,\n            startAt: _startAt, \n            endAt: _endAt,\n            claimed: false\n        });\n\n        emit Launch(count, msg.sender, _goal, _startAt, _endAt);\n    }\n    \n    function cancel(uint _id) external {\n        Campaign memory campaign = campaigns[_id];\n        require(msg.sender == campaign.creator,'not stared');\n        require(block.timestamp < campaign.startAt,\"started the Fund-Campaign\");\n        delete campaigns[_id];\n        emit Cancel(_id);\n     }\n    function pledge(uint _id,uint _amount) external {\n        Campaign storage campaign = campaigns[_id];\n        require(block.timestamp >= campaign.startAt, 'Not started yet');\n        require(block.timestamp <= campaign.endAt,'Aleady ended');\n\n        campaign.pledged += _amount;\n        pledgeAmount[_id][msg.sender] += _amount;\n        token.transferFrom(msg.sender, address(this), _amount);\n\n        emit Pledge(_id, msg.sender, _amount);\n     }\n    function unpledge(uint _id,uint _amount) external {\n        Campaign storage campaign = campaigns[_id];\n        require(block.timestamp <= campaign.endAt,'ended');\n\n        campaign.pledged -= _amount;\n        pledgeAmount[_id][msg.sender] -= _amount;\n        token.transfer(msg.sender, _amount);\n     }\n    function claim(uint _id) external {\n        Campaign storage campaign = campaigns[_id];\n        require(msg.sender == campaign.creator,'Campaign not created');\n        require(block.timestamp > campaign.endAt, 'not ended');\n        require(campaign.pledged >= campaign.goal, 'pledged < goal');\n        require(!campaign.claimed,'claimed');\n\n        campaign.claimed = true;\n     }\n\n    function refund(uint _id) external { \n        Campaign storage campaign = campaigns[_id];\n        require(block.timestamp > campaign.endAt, 'not ended');\n        require(campaign.pledged < campaign.goal, 'pledged < goal');\n        \n        uint ballance = pledgeAmount[_id][msg.sender];\n        pledgeAmount[_id][msg.sender] =0;\n        token.transfer(msg.sender, ballance);\n\n        emit Refund(_id, msg.sender, ballance);\n    }\n    // Creating a event so we can get the address and store it in a Array\n    \n    function getCampaign() public view returns (address[] memory) {\n       \n    }\n}\n",
  "sourcePath": "/Users/vikashpathak/works/block-c/Chapter-1/Vikash-Pathak/Evaluation/contracts/Campaign.sol",
  "compiler": {
    "name": "solc",
    "version": "0.8.12+commit.f00d7308.Emscripten.clang"
  },
  "schemaVersion": "3.4.5",
  "updatedAt": "2022-03-11T14:12:36.015Z",
  "devdoc": {
    "kind": "dev",
    "methods": {},
    "version": 1
  },
  "userdoc": {
    "kind": "user",
    "methods": {},
    "version": 1
  }
}