{
  "contractName": "OpenFunds",
  "abi": [
    {
      "inputs": [
        {
          "internalType": "uint256",
          "name": "_fundgoal",
          "type": "uint256"
        },
        {
          "internalType": "uint32",
          "name": "_id",
          "type": "uint32"
        }
      ],
      "stateMutability": "nonpayable",
      "type": "constructor"
    },
    {
      "anonymous": false,
      "inputs": [
        {
          "indexed": false,
          "internalType": "string",
          "name": "proposalId",
          "type": "string"
        },
        {
          "indexed": false,
          "internalType": "string",
          "name": "name",
          "type": "string"
        },
        {
          "indexed": false,
          "internalType": "string",
          "name": "description",
          "type": "string"
        },
        {
          "indexed": false,
          "internalType": "uint256",
          "name": "fundsGoal",
          "type": "uint256"
        }
      ],
      "name": "ProjectCreated",
      "type": "event"
    },
    {
      "anonymous": false,
      "inputs": [
        {
          "indexed": false,
          "internalType": "string",
          "name": "proposalId",
          "type": "string"
        },
        {
          "indexed": false,
          "internalType": "uint256",
          "name": "value",
          "type": "uint256"
        }
      ],
      "name": "ProjectFunded",
      "type": "event"
    },
    {
      "anonymous": false,
      "inputs": [
        {
          "indexed": false,
          "internalType": "uint256",
          "name": "id",
          "type": "uint256"
        },
        {
          "indexed": false,
          "internalType": "enum OpenFunds.CurrentState",
          "name": "state",
          "type": "uint8"
        }
      ],
      "name": "ProjectStateChanged",
      "type": "event"
    },
    {
      "inputs": [],
      "name": "amount",
      "outputs": [
        {
          "internalType": "uint256",
          "name": "",
          "type": "uint256"
        }
      ],
      "stateMutability": "view",
      "type": "function"
    },
    {
      "inputs": [
        {
          "internalType": "string",
          "name": "",
          "type": "string"
        },
        {
          "internalType": "uint256",
          "name": "",
          "type": "uint256"
        }
      ],
      "name": "contributions",
      "outputs": [
        {
          "internalType": "address",
          "name": "contributer",
          "type": "address"
        },
        {
          "internalType": "uint256",
          "name": "value",
          "type": "uint256"
        }
      ],
      "stateMutability": "view",
      "type": "function"
    },
    {
      "inputs": [],
      "name": "creator",
      "outputs": [
        {
          "internalType": "address",
          "name": "",
          "type": "address"
        }
      ],
      "stateMutability": "view",
      "type": "function"
    },
    {
      "inputs": [],
      "name": "description",
      "outputs": [
        {
          "internalType": "string",
          "name": "",
          "type": "string"
        }
      ],
      "stateMutability": "view",
      "type": "function"
    },
    {
      "inputs": [],
      "name": "fundGoal",
      "outputs": [
        {
          "internalType": "uint256",
          "name": "",
          "type": "uint256"
        }
      ],
      "stateMutability": "view",
      "type": "function"
    },
    {
      "inputs": [],
      "name": "id",
      "outputs": [
        {
          "internalType": "uint32",
          "name": "",
          "type": "uint32"
        }
      ],
      "stateMutability": "view",
      "type": "function"
    },
    {
      "inputs": [],
      "name": "name",
      "outputs": [
        {
          "internalType": "string",
          "name": "",
          "type": "string"
        }
      ],
      "stateMutability": "view",
      "type": "function"
    },
    {
      "inputs": [
        {
          "internalType": "uint256",
          "name": "",
          "type": "uint256"
        }
      ],
      "name": "projects",
      "outputs": [
        {
          "internalType": "string",
          "name": "proposalId",
          "type": "string"
        },
        {
          "internalType": "string",
          "name": "name",
          "type": "string"
        },
        {
          "internalType": "string",
          "name": "desciption",
          "type": "string"
        },
        {
          "internalType": "address payable",
          "name": "owner",
          "type": "address"
        },
        {
          "internalType": "enum OpenFunds.CurrentState",
          "name": "state",
          "type": "uint8"
        },
        {
          "internalType": "uint256",
          "name": "fund",
          "type": "uint256"
        },
        {
          "internalType": "uint256",
          "name": "fundGoal",
          "type": "uint256"
        }
      ],
      "stateMutability": "view",
      "type": "function"
    },
    {
      "inputs": [],
      "name": "requiredFund",
      "outputs": [
        {
          "internalType": "uint256",
          "name": "",
          "type": "uint256"
        }
      ],
      "stateMutability": "view",
      "type": "function"
    },
    {
      "inputs": [],
      "name": "tokenCounter",
      "outputs": [
        {
          "internalType": "uint256",
          "name": "",
          "type": "uint256"
        }
      ],
      "stateMutability": "view",
      "type": "function"
    },
    {
      "inputs": [
        {
          "internalType": "string",
          "name": "_Id",
          "type": "string"
        },
        {
          "internalType": "string",
          "name": "_name",
          "type": "string"
        },
        {
          "internalType": "string",
          "name": "_description",
          "type": "string"
        },
        {
          "internalType": "uint256",
          "name": "_fundGoal",
          "type": "uint256"
        }
      ],
      "name": "CreateProject",
      "outputs": [],
      "stateMutability": "nonpayable",
      "type": "function"
    },
    {
      "inputs": [
        {
          "internalType": "uint256",
          "name": "projectId",
          "type": "uint256"
        }
      ],
      "name": "FundProject",
      "outputs": [],
      "stateMutability": "payable",
      "type": "function"
    },
    {
      "inputs": [
        {
          "internalType": "uint256",
          "name": "_amount",
          "type": "uint256"
        }
      ],
      "name": "Fund",
      "outputs": [],
      "stateMutability": "payable",
      "type": "function"
    },
    {
      "inputs": [
        {
          "internalType": "enum OpenFunds.CurrentState",
          "name": "_newState",
          "type": "uint8"
        },
        {
          "internalType": "uint256",
          "name": "projectId",
          "type": "uint256"
        }
      ],
      "name": "ChangeState",
      "outputs": [],
      "stateMutability": "nonpayable",
      "type": "function"
    }
  ],
  "bytecode": "0x60806040526000600260006101000a81548163ffffffff021916908363ffffffff1602179055503480156200003357600080fd5b5060405162002517380380620025178339818101604052810190620000599190620001ee565b600073ffffffffffffffffffffffffffffffffffffffff163373ffffffffffffffffffffffffffffffffffffffff161415620000cc576040517f08c379a0000000000000000000000000000000000000000000000000000000008152600401620000c39062000296565b60405180910390fd5b670429d069189e0000821162000119576040517f08c379a0000000000000000000000000000000000000000000000000000000008152600401620001109062000308565b60405180910390fd5b60008163ffffffff161462000165576040517f08c379a00000000000000000000000000000000000000000000000000000000081526004016200015c906200037a565b60405180910390fd5b50506200039c565b600080fd5b6000819050919050565b620001878162000172565b81146200019357600080fd5b50565b600081519050620001a7816200017c565b92915050565b600063ffffffff82169050919050565b620001c881620001ad565b8114620001d457600080fd5b50565b600081519050620001e881620001bd565b92915050565b600080604083850312156200020857620002076200016d565b5b6000620002188582860162000196565b92505060206200022b85828601620001d7565b9150509250929050565b600082825260208201905092915050565b7f6e6f7420612076616c6964206163636f756e7400000000000000000000000000600082015250565b60006200027e60138362000235565b91506200028b8262000246565b602082019050919050565b60006020820190508181036000830152620002b1816200026f565b9050919050565b7f66756e642076616c756520697320746f6f206c6f770000000000000000000000600082015250565b6000620002f060158362000235565b9150620002fd82620002b8565b602082019050919050565b600060208201905081810360008301526200032381620002e1565b9050919050565b7f43616d706169676e206973206163746976650000000000000000000000000000600082015250565b60006200036260128362000235565b91506200036f826200032a565b602082019050919050565b60006020820190508181036000830152620003958162000353565b9050919050565b61216b80620003ac6000396000f3fe6080604052600436106100dd5760003560e01c80637f3fcdd91161007f578063aa8c217c11610059578063aa8c217c14610299578063af640d0f146102c4578063d082e381146102ef578063e15fa5b21461031a576100dd565b80637f3fcdd91461021657806380ea0f81146102545780638676bc181461027d576100dd565b806327b2dc14116100bb57806327b2dc141461017b5780633c471c19146101975780635e97e9b3146101c25780637284e416146101eb576100dd565b806302d05d3f146100e257806306fdde031461010d578063107046bd14610138575b600080fd5b3480156100ee57600080fd5b506100f7610345565b6040516101049190611652565b60405180910390f35b34801561011957600080fd5b5061012261036b565b60405161012f9190611706565b60405180910390f35b34801561014457600080fd5b5061015f600480360381019061015a9190611772565b6103f9565b6040516101729796959493929190611846565b60405180910390f35b61019560048036038101906101909190611772565b610610565b005b3480156101a357600080fd5b506101ac610670565b6040516101b991906118ca565b60405180910390f35b3480156101ce57600080fd5b506101e960048036038101906101e49190611a7a565b610676565b005b3480156101f757600080fd5b506102006108b9565b60405161020d9190611706565b60405180910390f35b34801561022257600080fd5b5061023d60048036038101906102389190611b3d565b610947565b60405161024b929190611b99565b60405180910390f35b34801561026057600080fd5b5061027b60048036038101906102769190611be7565b6109be565b005b61029760048036038101906102929190611772565b610ee0565b005b3480156102a557600080fd5b506102ae611546565b6040516102bb91906118ca565b60405180910390f35b3480156102d057600080fd5b506102d961154c565b6040516102e69190611c46565b60405180910390f35b3480156102fb57600080fd5b50610304611562565b60405161031191906118ca565b60405180910390f35b34801561032657600080fd5b5061032f611568565b60405161033c91906118ca565b60405180910390f35b600560009054906101000a900473ffffffffffffffffffffffffffffffffffffffff1681565b6003805461037890611c90565b80601f01602080910402602001604051908101604052809291908181526020018280546103a490611c90565b80156103f15780601f106103c6576101008083540402835291602001916103f1565b820191906000526020600020905b8154815290600101906020018083116103d457829003601f168201915b505050505081565b600a818154811061040957600080fd5b906000526020600020906006020160009150905080600001805461042c90611c90565b80601f016020809104026020016040519081016040528092919081815260200182805461045890611c90565b80156104a55780601f1061047a576101008083540402835291602001916104a5565b820191906000526020600020905b81548152906001019060200180831161048857829003601f168201915b5050505050908060010180546104ba90611c90565b80601f01602080910402602001604051908101604052809291908181526020018280546104e690611c90565b80156105335780601f1061050857610100808354040283529160200191610533565b820191906000526020600020905b81548152906001019060200180831161051657829003601f168201915b50505050509080600201805461054890611c90565b80601f016020809104026020016040519081016040528092919081815260200182805461057490611c90565b80156105c15780601f10610596576101008083540402835291602001916105c1565b820191906000526020600020905b8154815290600101906020018083116105a457829003601f168201915b5050505050908060030160009054906101000a900473ffffffffffffffffffffffffffffffffffffffff16908060030160149054906101000a900460ff16908060040154908060050154905087565b34811015610653576040517f08c379a000000000000000000000000000000000000000000000000000000000815260040161064a90611ce8565b60405180910390fd5b6001600660008282546106669190611d37565b9250508190555050565b600b5481565b60006040518060e0016040528088815260200187878080601f016020809104026020016040519081016040528093929190818152602001838380828437600081840152601f19601f82011690508083019250505050505050815260200185858080601f016020809104026020016040519081016040528093929190818152602001838380828437600081840152601f19601f8201169050808301925050505050505081526020013373ffffffffffffffffffffffffffffffffffffffff1681526020016000600181111561074d5761074c6117c0565b5b815260200160008152602001838152509050600a81908060018154018082558091505060019003906000526020600020906006020160009091909190915060008201518160000190805190602001906107a792919061156e565b5060208201518160010190805190602001906107c492919061156e565b5060408201518160020190805190602001906107e192919061156e565b5060608201518160030160006101000a81548173ffffffffffffffffffffffffffffffffffffffff021916908373ffffffffffffffffffffffffffffffffffffffff16021790555060808201518160030160146101000a81548160ff02191690836001811115610854576108536117c0565b5b021790555060a0820151816004015560c0820151816005015550507f472657fb15180beb1548b31adee57ada1efa0dbd19d25622c6f1a27d0c97c2378787878787876040516108a896959493929190611dba565b60405180910390a150505050505050565b600480546108c690611c90565b80601f01602080910402602001604051908101604052809291908181526020018280546108f290611c90565b801561093f5780601f106109145761010080835404028352916020019161093f565b820191906000526020600020905b81548152906001019060200180831161092257829003601f168201915b505050505081565b600982805160208101820180518482526020830160208501208183528095505050505050818154811061097957600080fd5b9060005260206000209060020201600091509150508060000160009054906101000a900473ffffffffffffffffffffffffffffffffffffffff16908060010154905082565b803373ffffffffffffffffffffffffffffffffffffffff16600a82815481106109ea576109e9611e18565b5b906000526020600020906006020160030160009054906101000a900473ffffffffffffffffffffffffffffffffffffffff1673ffffffffffffffffffffffffffffffffffffffff1614610a72576040517f08c379a0000000000000000000000000000000000000000000000000000000008152600401610a6990611e93565b60405180910390fd5b6000600a8381548110610a8857610a87611e18565b5b90600052602060002090600602016040518060e0016040529081600082018054610ab190611c90565b80601f0160208091040260200160405190810160405280929190818152602001828054610add90611c90565b8015610b2a5780601f10610aff57610100808354040283529160200191610b2a565b820191906000526020600020905b815481529060010190602001808311610b0d57829003601f168201915b50505050508152602001600182018054610b4390611c90565b80601f0160208091040260200160405190810160405280929190818152602001828054610b6f90611c90565b8015610bbc5780601f10610b9157610100808354040283529160200191610bbc565b820191906000526020600020905b815481529060010190602001808311610b9f57829003601f168201915b50505050508152602001600282018054610bd590611c90565b80601f0160208091040260200160405190810160405280929190818152602001828054610c0190611c90565b8015610c4e5780601f10610c2357610100808354040283529160200191610c4e565b820191906000526020600020905b815481529060010190602001808311610c3157829003601f168201915b505050505081526020016003820160009054906101000a900473ffffffffffffffffffffffffffffffffffffffff1673ffffffffffffffffffffffffffffffffffffffff1673ffffffffffffffffffffffffffffffffffffffff1681526020016003820160149054906101000a900460ff166001811115610cd257610cd16117c0565b5b6001811115610ce457610ce36117c0565b5b8152602001600482015481526020016005820154815250509050836001811115610d1157610d106117c0565b5b81608001516001811115610d2857610d276117c0565b5b1415610d69576040517f08c379a0000000000000000000000000000000000000000000000000000000008152600401610d6090611eff565b60405180910390fd5b8381608001906001811115610d8157610d806117c0565b5b90816001811115610d9557610d946117c0565b5b8152505080600a8481548110610dae57610dad611e18565b5b90600052602060002090600602016000820151816000019080519060200190610dd892919061156e565b506020820151816001019080519060200190610df592919061156e565b506040820151816002019080519060200190610e1292919061156e565b5060608201518160030160006101000a81548173ffffffffffffffffffffffffffffffffffffffff021916908373ffffffffffffffffffffffffffffffffffffffff16021790555060808201518160030160146101000a81548160ff02191690836001811115610e8557610e846117c0565b5b021790555060a0820151816004015560c082015181600501559050507f84748ac78940dbf14129c6da5df32a04b530b472eaddadb4d7b62ea4e88bd46d8385604051610ed2929190611f1f565b60405180910390a150505050565b803373ffffffffffffffffffffffffffffffffffffffff16600a8281548110610f0c57610f0b611e18565b5b906000526020600020906006020160030160009054906101000a900473ffffffffffffffffffffffffffffffffffffffff1673ffffffffffffffffffffffffffffffffffffffff161415610f95576040517f08c379a0000000000000000000000000000000000000000000000000000000008152600401610f8c90611f94565b60405180910390fd5b6000600a8381548110610fab57610faa611e18565b5b90600052602060002090600602016040518060e0016040529081600082018054610fd490611c90565b80601f016020809104026020016040519081016040528092919081815260200182805461100090611c90565b801561104d5780601f106110225761010080835404028352916020019161104d565b820191906000526020600020905b81548152906001019060200180831161103057829003601f168201915b5050505050815260200160018201805461106690611c90565b80601f016020809104026020016040519081016040528092919081815260200182805461109290611c90565b80156110df5780601f106110b4576101008083540402835291602001916110df565b820191906000526020600020905b8154815290600101906020018083116110c257829003601f168201915b505050505081526020016002820180546110f890611c90565b80601f016020809104026020016040519081016040528092919081815260200182805461112490611c90565b80156111715780601f1061114657610100808354040283529160200191611171565b820191906000526020600020905b81548152906001019060200180831161115457829003601f168201915b505050505081526020016003820160009054906101000a900473ffffffffffffffffffffffffffffffffffffffff1673ffffffffffffffffffffffffffffffffffffffff1673ffffffffffffffffffffffffffffffffffffffff1681526020016003820160149054906101000a900460ff1660018111156111f5576111f46117c0565b5b6001811115611207576112066117c0565b5b8152602001600482015481526020016005820154815250509050600180811115611234576112336117c0565b5b8160800151600181111561124b5761124a6117c0565b5b141561128c576040517f08c379a000000000000000000000000000000000000000000000000000000000815260040161128390612026565b60405180910390fd5b600034116112cf576040517f08c379a00000000000000000000000000000000000000000000000000000000081526004016112c690612092565b60405180910390fd5b806060015173ffffffffffffffffffffffffffffffffffffffff166108fc349081150290604051600060405180830381858888f19350505050158015611319573d6000803e3d6000fd5b50348160a00181815161132c9190611d37565b9150818152505080600a848154811061134857611347611e18565b5b9060005260206000209060060201600082015181600001908051906020019061137292919061156e565b50602082015181600101908051906020019061138f92919061156e565b5060408201518160020190805190602001906113ac92919061156e565b5060608201518160030160006101000a81548173ffffffffffffffffffffffffffffffffffffffff021916908373ffffffffffffffffffffffffffffffffffffffff16021790555060808201518160030160146101000a81548160ff0219169083600181111561141f5761141e6117c0565b5b021790555060a0820151816004015560c082015181600501559050506009816000015160405161144f91906120ee565b908152602001604051809103902060405180604001604052803373ffffffffffffffffffffffffffffffffffffffff16815260200134815250908060018154018082558091505060019003906000526020600020906002020160009091909190915060008201518160000160006101000a81548173ffffffffffffffffffffffffffffffffffffffff021916908373ffffffffffffffffffffffffffffffffffffffff1602179055506020820151816001015550507f925c00924682e835f48a31e5b83cb323934f40a811c5a8f44a662915035033c6816000015134604051611539929190612105565b60405180910390a1505050565b60075481565b600260009054906101000a900463ffffffff1681565b60065481565b60085481565b82805461157a90611c90565b90600052602060002090601f01602090048101928261159c57600085556115e3565b82601f106115b557805160ff19168380011785556115e3565b828001600101855582156115e3579182015b828111156115e25782518255916020019190600101906115c7565b5b5090506115f091906115f4565b5090565b5b8082111561160d5760008160009055506001016115f5565b5090565b600073ffffffffffffffffffffffffffffffffffffffff82169050919050565b600061163c82611611565b9050919050565b61164c81611631565b82525050565b60006020820190506116676000830184611643565b92915050565b600081519050919050565b600082825260208201905092915050565b60005b838110156116a757808201518184015260208101905061168c565b838111156116b6576000848401525b50505050565b6000601f19601f8301169050919050565b60006116d88261166d565b6116e28185611678565b93506116f2818560208601611689565b6116fb816116bc565b840191505092915050565b6000602082019050818103600083015261172081846116cd565b905092915050565b6000604051905090565b600080fd5b600080fd5b6000819050919050565b61174f8161173c565b811461175a57600080fd5b50565b60008135905061176c81611746565b92915050565b60006020828403121561178857611787611732565b5b60006117968482850161175d565b91505092915050565b60006117aa82611611565b9050919050565b6117ba8161179f565b82525050565b7f4e487b7100000000000000000000000000000000000000000000000000000000600052602160045260246000fd5b60028110611800576117ff6117c0565b5b50565b6000819050611811826117ef565b919050565b600061182182611803565b9050919050565b61183181611816565b82525050565b6118408161173c565b82525050565b600060e0820190508181036000830152611860818a6116cd565b9050818103602083015261187481896116cd565b9050818103604083015261188881886116cd565b905061189760608301876117b1565b6118a46080830186611828565b6118b160a0830185611837565b6118be60c0830184611837565b98975050505050505050565b60006020820190506118df6000830184611837565b92915050565b600080fd5b600080fd5b7f4e487b7100000000000000000000000000000000000000000000000000000000600052604160045260246000fd5b611927826116bc565b810181811067ffffffffffffffff82111715611946576119456118ef565b5b80604052505050565b6000611959611728565b9050611965828261191e565b919050565b600067ffffffffffffffff821115611985576119846118ef565b5b61198e826116bc565b9050602081019050919050565b82818337600083830152505050565b60006119bd6119b88461196a565b61194f565b9050828152602081018484840111156119d9576119d86118ea565b5b6119e484828561199b565b509392505050565b600082601f830112611a0157611a006118e5565b5b8135611a118482602086016119aa565b91505092915050565b600080fd5b600080fd5b60008083601f840112611a3a57611a396118e5565b5b8235905067ffffffffffffffff811115611a5757611a56611a1a565b5b602083019150836001820283011115611a7357611a72611a1f565b5b9250929050565b60008060008060008060808789031215611a9757611a96611732565b5b600087013567ffffffffffffffff811115611ab557611ab4611737565b5b611ac189828a016119ec565b965050602087013567ffffffffffffffff811115611ae257611ae1611737565b5b611aee89828a01611a24565b9550955050604087013567ffffffffffffffff811115611b1157611b10611737565b5b611b1d89828a01611a24565b93509350506060611b3089828a0161175d565b9150509295509295509295565b60008060408385031215611b5457611b53611732565b5b600083013567ffffffffffffffff811115611b7257611b71611737565b5b611b7e858286016119ec565b9250506020611b8f8582860161175d565b9150509250929050565b6000604082019050611bae6000830185611643565b611bbb6020830184611837565b9392505050565b60028110611bcf57600080fd5b50565b600081359050611be181611bc2565b92915050565b60008060408385031215611bfe57611bfd611732565b5b6000611c0c85828601611bd2565b9250506020611c1d8582860161175d565b9150509250929050565b600063ffffffff82169050919050565b611c4081611c27565b82525050565b6000602082019050611c5b6000830184611c37565b92915050565b7f4e487b7100000000000000000000000000000000000000000000000000000000600052602260045260246000fd5b60006002820490506001821680611ca857607f821691505b60208210811415611cbc57611cbb611c61565b5b50919050565b50565b6000611cd2600083611678565b9150611cdd82611cc2565b600082019050919050565b60006020820190508181036000830152611d0181611cc5565b9050919050565b7f4e487b7100000000000000000000000000000000000000000000000000000000600052601160045260246000fd5b6000611d428261173c565b9150611d4d8361173c565b9250827fffffffffffffffffffffffffffffffffffffffffffffffffffffffffffffffff03821115611d8257611d81611d08565b5b828201905092915050565b6000611d998385611678565b9350611da683858461199b565b611daf836116bc565b840190509392505050565b60006080820190508181036000830152611dd481896116cd565b90508181036020830152611de9818789611d8d565b90508181036040830152611dfe818587611d8d565b9050611e0d6060830184611837565b979650505050505050565b7f4e487b7100000000000000000000000000000000000000000000000000000000600052603260045260246000fd5b7f4e6f74206120636f6e7472696275746572000000000000000000000000000000600082015250565b6000611e7d601183611678565b9150611e8882611e47565b602082019050919050565b60006020820190508181036000830152611eac81611e70565b9050919050565b7f616c7265616479206368616e6765640000000000000000000000000000000000600082015250565b6000611ee9600f83611678565b9150611ef482611eb3565b602082019050919050565b60006020820190508181036000830152611f1881611edc565b9050919050565b6000604082019050611f346000830185611837565b611f416020830184611828565b9392505050565b7f4173206f776e657220796f752063616e6e6f742066756e6420746f2073656c66600082015250565b6000611f7e602083611678565b9150611f8982611f48565b602082019050919050565b60006020820190508181036000830152611fad81611f71565b9050919050565b7f2050726f6a6563742063616e6e6f7420726563696576652066756e647320697460008201527f20697320636c6f73656400000000000000000000000000000000000000000000602082015250565b6000612010602a83611678565b915061201b82611fb4565b604082019050919050565b6000602082019050818103600083015261203f81612003565b9050919050565b7f2076616c75652063616e6e6f7420626520300000000000000000000000000000600082015250565b600061207c601283611678565b915061208782612046565b602082019050919050565b600060208201905081810360008301526120ab8161206f565b9050919050565b600081905092915050565b60006120c88261166d565b6120d281856120b2565b93506120e2818560208601611689565b80840191505092915050565b60006120fa82846120bd565b915081905092915050565b6000604082019050818103600083015261211f81856116cd565b905061212e6020830184611837565b939250505056fea264697066735822122066403e14a00eb839be3996c82feba5ec265eccc30ac0c4daba0145da399d3cbd64736f6c634300080c0033",
  "immutableReferences": {},
  "source": "// SPDX-License-Identifier: MIT\npragma solidity 0.8.12;\nimport \"./IERC20.sol\";\n// import \"../@openzeppelin/contracts/token/ERC1155/ERC1155.sol\";\n// import \"../@openzeppelin/contracts/access/Ownable.sol\";\n// import \"../@openzeppelin/contracts/utils/Strings.sol\";\n\n\ncontract OpenFunds {\n    // Events of Crowdfund Logic\n    event ProjectCreated(string proposalId, string name, string description, uint256 fundsGoal);\n    event ProjectFunded(string proposalId, uint256 value);\n    event ProjectStateChanged(uint256 id, CurrentState state);\n\n    // mapping from accounts to operator approvals\n    mapping(address => mapping(address => bool)) private _operatorApprovals;\n    // TokenId => Address => Amount\n    mapping(uint256 => mapping(address => uint256)) private _balances;    \n    uint32 public id = 0;\n    // Contructor for getting input early\n    constructor(uint256 _fundgoal,uint32 _id) {\n        require(msg.sender != address(0) , 'not a valid account');\n        require(_fundgoal > 0.3 ether,\"fund value is too low\");\n        require(_id == 0,\"Campaign is active\");\n    }\n   \n    string public name;\n    string public description;\n    address public creator;\n    uint256 public tokenCounter;\n    uint256 public amount;\n    uint256 public fundGoal;\n\n    // States for the transaction\n    enum CurrentState {\n        Opened,\n        Closed\n    }\n    // Contribution details\n    struct Contribution{\n        address contributer;\n        uint256 value;\n    }\n    mapping(string => Contribution[]) public contributions;\n    // Fund details Object\n    struct Project {\n        string proposalId;\n        string name;\n        string desciption;\n        address payable owner;\n        CurrentState state;\n        uint256 fund;\n        uint256 fundGoal;\n    }  \n    Project[] public projects;\n    \n    modifier isOwner(uint256 _projectIndex){\n        require(projects[_projectIndex].owner == msg.sender, \"Not a contributer\"); \n        _;\n    }\n\n    // Creating the project proposal\n    function CreateProject(\n        string memory  _Id,\n        string calldata _name,\n        string calldata _description,\n        uint256 _fundGoal\n    ) public {\n        Project memory project = Project(\n            _Id,\n            _name,\n            _description,\n            payable(msg.sender),\n            CurrentState.Opened,\n            0,\n            _fundGoal\n        );\n        // Project Created and pushed \n        projects.push(project);\n        emit ProjectCreated(_Id, _name, _description, _fundGoal);\n    }\n    // For restriction user can not fund their own \n    modifier isNotOwner(uint256 proposalId) {  \n        require(projects[proposalId].owner != msg.sender,\n                \"As owner you cannot fund to self\" );\n            _;\n        }\n    // Fund project \n    function FundProject(uint256 projectId) public payable isNotOwner(projectId) \n      {\n        Project memory project = projects[projectId];\n        require(project.state != CurrentState.Closed,\" Project cannot recieve funds it is closed\");\n        require(msg.value > 0,\" value cannot be 0\");\n        project.owner.transfer(msg.value); \n        project.fund += msg.value;\n        projects[projectId] = project;\n// Contribute and emit the funds\n        contributions[project.proposalId].push(Contribution(msg.sender, msg.value));\n    // releasing the fund into project\n        emit ProjectFunded(project.proposalId, msg.value);    \n    }\n        uint256 public requiredFund;\n    // amount => Quantity of FakeAmount to be minted \n    function Fund(uint256 _amount) public payable {\n        require(_amount >= msg.value,\"\" );\n        tokenCounter += 1;\n        // uint256 reqFund = fundGoal - _amount;\n        // requiredFund = reqFund;\n    }\n// Changing current state    \n    function ChangeState(CurrentState _newState,uint256 projectId) public isOwner(projectId) {\n        Project memory project = projects[projectId];\n        require(project.state != _newState,\"already changed\");\n        project.state = _newState;\n        projects[projectId] = project;\n        // emiting changes\n        emit ProjectStateChanged(projectId, _newState);\n    }\n\n    // the checking function that returns trnsfer is received or not\n    // function _checkOnERC1155Recieved() internal pure returns(bool) {\n    //     return true;        \n    // }\n    // Authenticity of ERC115 Interface function\n    // function supportsInterface(bytes4 interfaceID) override public pure returns (bool){\n    //         // return interfaceId == 0x80ac58cd; // this the Id of ERC`1155 \n    //         return interfaceID == 0xd9b67a26 || interfaceID == 0x0e89341c;\n            \n    // }\n}\n\n",
  "sourcePath": "/Users/vikashpathak/works/block-c/Chapter-1/Vikash-Pathak/Evaluation/contracts/OpenFund.sol",
  "compiler": {
    "name": "solc",
    "version": "0.8.12+commit.f00d7308.Emscripten.clang"
  },
  "schemaVersion": "3.4.5",
  "updatedAt": "2022-03-11T14:12:36.024Z",
  "devdoc": {
    "kind": "dev",
    "methods": {},
    "version": 1
  },
  "userdoc": {
    "kind": "user",
    "methods": {},
    "version": 1
  }
}